{
  "contractName": "ERCBridgeBsc",
  "abi": [
    {
      "inputs": [
        {
          "internalType": "address",
          "name": "_token",
          "type": "address"
        }
      ],
      "stateMutability": "nonpayable",
      "type": "constructor"
    },
    {
      "inputs": [
        {
          "internalType": "address",
          "name": "_account",
          "type": "address"
        },
        {
          "internalType": "uint256",
          "name": "_amount",
          "type": "uint256"
        }
      ],
      "name": "burn",
      "outputs": [],
      "stateMutability": "nonpayable",
      "type": "function"
    },
    {
      "inputs": [
        {
          "internalType": "address",
          "name": "_account",
          "type": "address"
        },
        {
          "internalType": "uint256",
          "name": "_amount",
          "type": "uint256"
        }
      ],
      "name": "mint",
      "outputs": [],
      "stateMutability": "nonpayable",
      "type": "function"
    },
    {
      "inputs": [],
      "name": "owner",
      "outputs": [
        {
          "internalType": "address",
          "name": "",
          "type": "address"
        }
      ],
      "stateMutability": "view",
      "type": "function"
    }
  ],
  "bytecode": "0x608060405234801561001057600080fd5b506040516104af3803806104af833981810160405281019061003291906100d0565b8033600160006101000a81548173ffffffffffffffffffffffffffffffffffffffff021916908373ffffffffffffffffffffffffffffffffffffffff160217905550806000806101000a81548173ffffffffffffffffffffffffffffffffffffffff021916908373ffffffffffffffffffffffffffffffffffffffff160217905550505061014b565b6000815190506100ca81610134565b92915050565b6000602082840312156100e6576100e561012f565b5b60006100f4848285016100bb565b91505092915050565b60006101088261010f565b9050919050565b600073ffffffffffffffffffffffffffffffffffffffff82169050919050565b600080fd5b61013d816100fd565b811461014857600080fd5b50565b6103558061015a6000396000f3fe608060405234801561001057600080fd5b50600436106100415760003560e01c806340c10f19146100465780638da5cb5b146100625780639dc29fac14610080575b600080fd5b610060600480360381019061005b919061020e565b61009c565b005b61006a61012d565b604051610077919061026c565b60405180910390f35b61009a6004803603810190610095919061020e565b610153565b005b60008054906101000a900473ffffffffffffffffffffffffffffffffffffffff1673ffffffffffffffffffffffffffffffffffffffff166379c6506883836040518363ffffffff1660e01b81526004016100f7929190610287565b600060405180830381600087803b15801561011157600080fd5b505af1158015610125573d6000803e3d6000fd5b505050505050565b600160009054906101000a900473ffffffffffffffffffffffffffffffffffffffff1681565b60008054906101000a900473ffffffffffffffffffffffffffffffffffffffff1673ffffffffffffffffffffffffffffffffffffffff1663d1df306c83836040518363ffffffff1660e01b81526004016101ae929190610287565b600060405180830381600087803b1580156101c857600080fd5b505af11580156101dc573d6000803e3d6000fd5b505050505050565b6000813590506101f3816102f1565b92915050565b60008135905061020881610308565b92915050565b60008060408385031215610225576102246102ec565b5b6000610233858286016101e4565b9250506020610244858286016101f9565b9150509250929050565b610257816102b0565b82525050565b610266816102e2565b82525050565b6000602082019050610281600083018461024e565b92915050565b600060408201905061029c600083018561024e565b6102a9602083018461025d565b9392505050565b60006102bb826102c2565b9050919050565b600073ffffffffffffffffffffffffffffffffffffffff82169050919050565b6000819050919050565b600080fd5b6102fa816102b0565b811461030557600080fd5b50565b610311816102e2565b811461031c57600080fd5b5056fea2646970667358221220d9c28b085c311b91e55712422620c5a00eccc7986d457b0f54418143877a638b64736f6c63430008070033",
  "immutableReferences": {},
  "source": "pragma solidity ^0.8.0;\n\nimport \"./ERCBridge.sol\";\n\ncontract ERCBridgeBsc is ERCBridge {\n    constructor(address _token) ERCBridge(_token) {}\n}\n",
  "sourcePath": "/home/cv2/blockchainProjects/EthBscBridge/contracts/ERCBridgeBsc.sol",
  "compiler": {
    "name": "solc",
    "version": "0.8.7+commit.e28d00a7.Emscripten.clang"
  },
  "schemaVersion": "3.4.1",
  "updatedAt": "2021-08-14T17:51:44.861Z",
  "networkType": "ethereum",
  "devdoc": {
    "kind": "dev",
    "methods": {},
    "version": 1
  },
  "userdoc": {
    "kind": "user",
    "methods": {},
    "version": 1
  }
}