{
  "contractName": "ERCBridgeEth",
  "abi": [
    {
      "inputs": [
        {
          "internalType": "address",
          "name": "_token",
          "type": "address"
        }
      ],
      "stateMutability": "nonpayable",
      "type": "constructor"
    },
    {
      "anonymous": false,
      "inputs": [
        {
          "indexed": false,
          "internalType": "address",
          "name": "from",
          "type": "address"
        },
        {
          "indexed": false,
          "internalType": "address",
          "name": "to",
          "type": "address"
        },
        {
          "indexed": false,
          "internalType": "uint256",
          "name": "amount",
          "type": "uint256"
        }
      ],
      "name": "Send",
      "type": "event"
    },
    {
      "inputs": [
        {
          "internalType": "address",
          "name": "_account",
          "type": "address"
        },
        {
          "internalType": "uint256",
          "name": "_amount",
          "type": "uint256"
        }
      ],
      "name": "burn",
      "outputs": [],
      "stateMutability": "nonpayable",
      "type": "function"
    },
    {
      "inputs": [
        {
          "internalType": "address",
          "name": "_account",
          "type": "address"
        },
        {
          "internalType": "uint256",
          "name": "_amount",
          "type": "uint256"
        }
      ],
      "name": "mint",
      "outputs": [],
      "stateMutability": "nonpayable",
      "type": "function"
    },
    {
      "inputs": [],
      "name": "owner",
      "outputs": [
        {
          "internalType": "address",
          "name": "",
          "type": "address"
        }
      ],
      "stateMutability": "view",
      "type": "function",
      "constant": true
    }
  ],
  "bytecode": "0x608060405234801561001057600080fd5b5060405161055c38038061055c833981810160405281019061003291906100d0565b8033600160006101000a81548173ffffffffffffffffffffffffffffffffffffffff021916908373ffffffffffffffffffffffffffffffffffffffff160217905550806000806101000a81548173ffffffffffffffffffffffffffffffffffffffff021916908373ffffffffffffffffffffffffffffffffffffffff160217905550505061014b565b6000815190506100ca81610134565b92915050565b6000602082840312156100e6576100e561012f565b5b60006100f4848285016100bb565b91505092915050565b60006101088261010f565b9050919050565b600073ffffffffffffffffffffffffffffffffffffffff82169050919050565b600080fd5b61013d816100fd565b811461014857600080fd5b50565b6104028061015a6000396000f3fe608060405234801561001057600080fd5b50600436106100415760003560e01c806340c10f19146100465780638da5cb5b146100625780639dc29fac14610080575b600080fd5b610060600480360381019061005b9190610284565b61009c565b005b61006a610168565b60405161007791906102e2565b60405180910390f35b61009a60048036038101906100959190610284565b61018e565b005b60008054906101000a900473ffffffffffffffffffffffffffffffffffffffff1673ffffffffffffffffffffffffffffffffffffffff166379c6506883836040518363ffffffff1660e01b81526004016100f7929190610334565b600060405180830381600087803b15801561011157600080fd5b505af1158015610125573d6000803e3d6000fd5b505050507f93eb3c629eb575edaf0252e4f9fc0c5ccada50496f8c1d32f0f93a65a8257eb533838360405161015c939291906102fd565b60405180910390a15050565b600160009054906101000a900473ffffffffffffffffffffffffffffffffffffffff1681565b60008054906101000a900473ffffffffffffffffffffffffffffffffffffffff1673ffffffffffffffffffffffffffffffffffffffff1663d1df306c83836040518363ffffffff1660e01b81526004016101e9929190610334565b600060405180830381600087803b15801561020357600080fd5b505af1158015610217573d6000803e3d6000fd5b505050507f93eb3c629eb575edaf0252e4f9fc0c5ccada50496f8c1d32f0f93a65a8257eb533838360405161024e939291906102fd565b60405180910390a15050565b6000813590506102698161039e565b92915050565b60008135905061027e816103b5565b92915050565b6000806040838503121561029b5761029a610399565b5b60006102a98582860161025a565b92505060206102ba8582860161026f565b9150509250929050565b6102cd8161035d565b82525050565b6102dc8161038f565b82525050565b60006020820190506102f760008301846102c4565b92915050565b600060608201905061031260008301866102c4565b61031f60208301856102c4565b61032c60408301846102d3565b949350505050565b600060408201905061034960008301856102c4565b61035660208301846102d3565b9392505050565b60006103688261036f565b9050919050565b600073ffffffffffffffffffffffffffffffffffffffff82169050919050565b6000819050919050565b600080fd5b6103a78161035d565b81146103b257600080fd5b50565b6103be8161038f565b81146103c957600080fd5b5056fea26469706673582212205309dfe9f475f4e8d13a3775e6336918407f49018dae275164cf00dc33a3f04464736f6c63430008070033",
  "immutableReferences": {},
  "source": "pragma solidity ^0.8.0;\n\nimport \"./ERCBridge.sol\";\n\ncontract ERCBridgeEth is ERCBridge {\n    constructor(address _token) ERCBridge(_token) {}\n}\n",
  "sourcePath": "/home/cv2/blockchainProjects/EthBscBridge/contracts/ERCBridgeEth.sol",
  "compiler": {
    "name": "solc",
    "version": "0.8.7+commit.e28d00a7.Emscripten.clang"
  },
  "schemaVersion": "3.4.1",
  "updatedAt": "2021-08-15T06:17:20.573Z",
  "networkType": "ethereum",
  "devdoc": {
    "kind": "dev",
    "methods": {},
    "version": 1
  },
  "userdoc": {
    "kind": "user",
    "methods": {},
    "version": 1
  }
}