{
  "contractName": "ERCBridge",
  "abi": [
    {
      "inputs": [
        {
          "internalType": "address",
          "name": "_token",
          "type": "address"
        }
      ],
      "stateMutability": "nonpayable",
      "type": "constructor"
    },
    {
      "anonymous": false,
      "inputs": [
        {
          "indexed": false,
          "internalType": "address",
          "name": "from",
          "type": "address"
        },
        {
          "indexed": false,
          "internalType": "address",
          "name": "to",
          "type": "address"
        },
        {
          "indexed": false,
          "internalType": "uint256",
          "name": "amount",
          "type": "uint256"
        }
      ],
      "name": "Send",
      "type": "event"
    },
    {
      "inputs": [],
      "name": "owner",
      "outputs": [
        {
          "internalType": "address",
          "name": "",
          "type": "address"
        }
      ],
      "stateMutability": "view",
      "type": "function"
    },
    {
      "inputs": [
        {
          "internalType": "address",
          "name": "_account",
          "type": "address"
        },
        {
          "internalType": "uint256",
          "name": "_amount",
          "type": "uint256"
        }
      ],
      "name": "mint",
      "outputs": [],
      "stateMutability": "nonpayable",
      "type": "function"
    },
    {
      "inputs": [
        {
          "internalType": "address",
          "name": "_account",
          "type": "address"
        },
        {
          "internalType": "uint256",
          "name": "_amount",
          "type": "uint256"
        }
      ],
      "name": "burn",
      "outputs": [],
      "stateMutability": "nonpayable",
      "type": "function"
    }
  ],
  "bytecode": "0x608060405234801561001057600080fd5b5060405161055a38038061055a833981810160405281019061003291906100ce565b33600160006101000a81548173ffffffffffffffffffffffffffffffffffffffff021916908373ffffffffffffffffffffffffffffffffffffffff160217905550806000806101000a81548173ffffffffffffffffffffffffffffffffffffffff021916908373ffffffffffffffffffffffffffffffffffffffff16021790555050610149565b6000815190506100c881610132565b92915050565b6000602082840312156100e4576100e361012d565b5b60006100f2848285016100b9565b91505092915050565b60006101068261010d565b9050919050565b600073ffffffffffffffffffffffffffffffffffffffff82169050919050565b600080fd5b61013b816100fb565b811461014657600080fd5b50565b610402806101586000396000f3fe608060405234801561001057600080fd5b50600436106100415760003560e01c806340c10f19146100465780638da5cb5b146100625780639dc29fac14610080575b600080fd5b610060600480360381019061005b9190610284565b61009c565b005b61006a610168565b60405161007791906102e2565b60405180910390f35b61009a60048036038101906100959190610284565b61018e565b005b60008054906101000a900473ffffffffffffffffffffffffffffffffffffffff1673ffffffffffffffffffffffffffffffffffffffff166379c6506883836040518363ffffffff1660e01b81526004016100f7929190610334565b600060405180830381600087803b15801561011157600080fd5b505af1158015610125573d6000803e3d6000fd5b505050507f93eb3c629eb575edaf0252e4f9fc0c5ccada50496f8c1d32f0f93a65a8257eb533838360405161015c939291906102fd565b60405180910390a15050565b600160009054906101000a900473ffffffffffffffffffffffffffffffffffffffff1681565b60008054906101000a900473ffffffffffffffffffffffffffffffffffffffff1673ffffffffffffffffffffffffffffffffffffffff1663d1df306c83836040518363ffffffff1660e01b81526004016101e9929190610334565b600060405180830381600087803b15801561020357600080fd5b505af1158015610217573d6000803e3d6000fd5b505050507f93eb3c629eb575edaf0252e4f9fc0c5ccada50496f8c1d32f0f93a65a8257eb533838360405161024e939291906102fd565b60405180910390a15050565b6000813590506102698161039e565b92915050565b60008135905061027e816103b5565b92915050565b6000806040838503121561029b5761029a610399565b5b60006102a98582860161025a565b92505060206102ba8582860161026f565b9150509250929050565b6102cd8161035d565b82525050565b6102dc8161038f565b82525050565b60006020820190506102f760008301846102c4565b92915050565b600060608201905061031260008301866102c4565b61031f60208301856102c4565b61032c60408301846102d3565b949350505050565b600060408201905061034960008301856102c4565b61035660208301846102d3565b9392505050565b60006103688261036f565b9050919050565b600073ffffffffffffffffffffffffffffffffffffffff82169050919050565b6000819050919050565b600080fd5b6103a78161035d565b81146103b257600080fd5b50565b6103be8161038f565b81146103c957600080fd5b5056fea26469706673582212200c1e988f7702f699eb06389ed0777f47a81db7a26860917c2dffbe0185b4743964736f6c63430008070033",
  "immutableReferences": {},
  "source": "pragma solidity ^0.8.0;\n\nimport \"./MyTokenEth.sol\";\nimport \"./MyTokenBsc.sol\";\n\ncontract ERCBridge {\n    MyToken token;\n    address public owner;\n\n    event Send(address from, address to, uint256 amount);\n\n    constructor(address _token) {\n        owner = msg.sender;\n        token = MyToken(_token);\n    }\n\n    function mint(address _account, uint256 _amount) external {\n        token.mintToken(_account, _amount);\n        emit Send(msg.sender, _account, _amount);\n    }\n\n    function burn(address _account, uint256 _amount) external {\n        token.burnToken(_account, _amount);\n        emit Send(msg.sender, _account, _amount);\n    }\n}\n",
  "sourcePath": "/home/cv2/blockchainProjects/EthBscBridge/contracts/ERCBridge.sol",
  "compiler": {
    "name": "solc",
    "version": "0.8.7+commit.e28d00a7.Emscripten.clang"
  },
  "schemaVersion": "3.4.1",
  "updatedAt": "2021-08-15T06:06:00.237Z",
  "devdoc": {
    "kind": "dev",
    "methods": {},
    "version": 1
  },
  "userdoc": {
    "kind": "user",
    "methods": {},
    "version": 1
  }
}